{
  "contractName": "HospitalRecord",
  "abi": [
    {
      "constant": true,
      "inputs": [
        {
          "name": "",
          "type": "uint256"
        }
      ],
      "name": "doctorList",
      "outputs": [
        {
          "name": "",
          "type": "address"
        }
      ],
      "payable": false,
      "stateMutability": "view",
      "type": "function",
      "signature": "0x127ca4b4"
    },
    {
      "constant": true,
      "inputs": [
        {
          "name": "",
          "type": "uint256"
        }
      ],
      "name": "records",
      "outputs": [
        {
          "name": "id",
          "type": "uint256"
        },
        {
          "name": "doctor_name",
          "type": "string"
        },
        {
          "name": "patient_name",
          "type": "string"
        },
        {
          "name": "patient_age",
          "type": "uint256"
        },
        {
          "name": "diagnostic",
          "type": "string"
        },
        {
          "name": "medication",
          "type": "string"
        }
      ],
      "payable": false,
      "stateMutability": "view",
      "type": "function",
      "signature": "0x34461067"
    },
    {
      "constant": true,
      "inputs": [],
      "name": "recordCount",
      "outputs": [
        {
          "name": "",
          "type": "uint256"
        }
      ],
      "payable": false,
      "stateMutability": "view",
      "type": "function",
      "signature": "0x900407bc"
    },
    {
      "constant": true,
      "inputs": [
        {
          "name": "",
          "type": "uint256"
        }
      ],
      "name": "patientList",
      "outputs": [
        {
          "name": "",
          "type": "address"
        }
      ],
      "payable": false,
      "stateMutability": "view",
      "type": "function",
      "signature": "0xbabb1d41"
    },
    {
      "anonymous": false,
      "inputs": [
        {
          "indexed": false,
          "name": "id",
          "type": "uint256"
        },
        {
          "indexed": false,
          "name": "doctor_name",
          "type": "string"
        },
        {
          "indexed": false,
          "name": "patient_name",
          "type": "string"
        },
        {
          "indexed": false,
          "name": "patient_age",
          "type": "uint256"
        },
        {
          "indexed": false,
          "name": "diagnostic",
          "type": "string"
        },
        {
          "indexed": false,
          "name": "medication",
          "type": "string"
        }
      ],
      "name": "RecordCreated",
      "type": "event",
      "signature": "0xde966ac8c370c4569afe3b6e6fbf020e23a583b35a5978fd670fb38a4da1dd3f"
    },
    {
      "constant": false,
      "inputs": [
        {
          "name": "_doctor_name",
          "type": "string"
        },
        {
          "name": "_patient_name",
          "type": "string"
        },
        {
          "name": "_patient_age",
          "type": "uint256"
        },
        {
          "name": "_diagnostic",
          "type": "string"
        },
        {
          "name": "_medication",
          "type": "string"
        }
      ],
      "name": "createRecord",
      "outputs": [],
      "payable": false,
      "stateMutability": "nonpayable",
      "type": "function",
      "signature": "0x173cb6be"
    },
    {
      "constant": false,
      "inputs": [
        {
          "name": "id",
          "type": "uint256"
        }
      ],
      "name": "getRecord",
      "outputs": [
        {
          "name": "_doctor_name",
          "type": "string"
        },
        {
          "name": "_patient_name",
          "type": "string"
        },
        {
          "name": "_patient_age",
          "type": "uint256"
        },
        {
          "name": "_diagnostic",
          "type": "string"
        },
        {
          "name": "_medication",
          "type": "string"
        }
      ],
      "payable": false,
      "stateMutability": "nonpayable",
      "type": "function",
      "signature": "0x03e9e609"
    },
    {
      "constant": false,
      "inputs": [
        {
          "name": "id",
          "type": "uint256"
        },
        {
          "name": "_doctor_name",
          "type": "string"
        },
        {
          "name": "_patient_name",
          "type": "string"
        },
        {
          "name": "_patient_age",
          "type": "uint256"
        },
        {
          "name": "_diagnostic",
          "type": "string"
        },
        {
          "name": "_medication",
          "type": "string"
        }
      ],
      "name": "updateRecord",
      "outputs": [],
      "payable": false,
      "stateMutability": "nonpayable",
      "type": "function",
      "signature": "0x7773f289"
    }
  ],
  "bytecode": "0x60806040526000805534801561001457600080fd5b506112a3806100246000396000f3fe6080604052600436106100825763ffffffff7c010000000000000000000000000000000000000000000000000000000060003504166303e9e6098114610087578063127ca4b414610262578063173cb6be146102b557806334461067146105075780637773f289146106e9578063900407bc14610867578063babb1d411461088e575b600080fd5b34801561009357600080fd5b506100b1600480360360208110156100aa57600080fd5b50356108b8565b604051808060200180602001868152602001806020018060200185810385528a818151815260200191508051906020019080838360005b838110156101005781810151838201526020016100e8565b50505050905090810190601f16801561012d5780820380516001836020036101000a031916815260200191505b5085810384528951815289516020918201918b019080838360005b83811015610160578181015183820152602001610148565b50505050905090810190601f16801561018d5780820380516001836020036101000a031916815260200191505b50858103835287518152875160209182019189019080838360005b838110156101c05781810151838201526020016101a8565b50505050905090810190601f1680156101ed5780820380516001836020036101000a031916815260200191505b50858103825286518152865160209182019188019080838360005b83811015610220578181015183820152602001610208565b50505050905090810190601f16801561024d5780820380516001836020036101000a031916815260200191505b50995050505050505050505060405180910390f35b34801561026e57600080fd5b5061028c6004803603602081101561028557600080fd5b5035610b84565b6040805173ffffffffffffffffffffffffffffffffffffffff9092168252519081900360200190f35b3480156102c157600080fd5b50610505600480360360a08110156102d857600080fd5b8101906020810181356401000000008111156102f357600080fd5b82018360208201111561030557600080fd5b8035906020019184600183028401116401000000008311171561032757600080fd5b91908080601f016020809104026020016040519081016040528093929190818152602001838380828437600092019190915250929594936020810193503591505064010000000081111561037a57600080fd5b82018360208201111561038c57600080fd5b803590602001918460018302840111640100000000831117156103ae57600080fd5b91908080601f0160208091040260200160405190810160405280939291908181526020018383808284376000920191909152509295843595909490935060408101925060200135905064010000000081111561040957600080fd5b82018360208201111561041b57600080fd5b8035906020019184600183028401116401000000008311171561043d57600080fd5b91908080601f016020809104026020016040519081016040528093929190818152602001838380828437600092019190915250929594936020810193503591505064010000000081111561049057600080fd5b8201836020820111156104a257600080fd5b803590602001918460018302840111640100000000831117156104c457600080fd5b91908080601f016020809104026020016040519081016040528093929190818152602001838380828437600092019190915250929550610bb9945050505050565b005b34801561051357600080fd5b506105316004803603602081101561052a57600080fd5b5035610e65565b604051808781526020018060200180602001868152602001806020018060200185810385528a818151815260200191508051906020019080838360005b8381101561058657818101518382015260200161056e565b50505050905090810190601f1680156105b35780820380516001836020036101000a031916815260200191505b5085810384528951815289516020918201918b019080838360005b838110156105e65781810151838201526020016105ce565b50505050905090810190601f1680156106135780820380516001836020036101000a031916815260200191505b50858103835287518152875160209182019189019080838360005b8381101561064657818101518382015260200161062e565b50505050905090810190601f1680156106735780820380516001836020036101000a031916815260200191505b50858103825286518152865160209182019188019080838360005b838110156106a657818101518382015260200161068e565b50505050905090810190601f1680156106d35780820380516001836020036101000a031916815260200191505b509a505050505050505050505060405180910390f35b3480156106f557600080fd5b50610505600480360360c081101561070c57600080fd5b8135919081019060408101602082013564010000000081111561072e57600080fd5b82018360208201111561074057600080fd5b8035906020019184600183028401116401000000008311171561076257600080fd5b91939092909160208101903564010000000081111561078057600080fd5b82018360208201111561079257600080fd5b803590602001918460018302840111640100000000831117156107b457600080fd5b919390928235926040810190602001356401000000008111156107d657600080fd5b8201836020820111156107e857600080fd5b8035906020019184600183028401116401000000008311171561080a57600080fd5b91939092909160208101903564010000000081111561082857600080fd5b82018360208201111561083a57600080fd5b8035906020019184600183028401116401000000008311171561085c57600080fd5b5090925090506110c5565b34801561087357600080fd5b5061087c611123565b60408051918252519081900360200190f35b34801561089a57600080fd5b5061028c600480360360208110156108b157600080fd5b5035611129565b60608060006060806108c8611137565b6005600088815260200190815260200160002060c0604051908101604052908160008201548152602001600182018054600181600116156101000203166002900480601f01602080910402602001604051908101604052809291908181526020018280546001816001161561010002031660029004801561098a5780601f1061095f5761010080835404028352916020019161098a565b820191906000526020600020905b81548152906001019060200180831161096d57829003601f168201915b5050509183525050600282810180546040805160206001841615610100026000190190931694909404601f81018390048302850183019091528084529381019390830182828015610a1c5780601f106109f157610100808354040283529160200191610a1c565b820191906000526020600020905b8154815290600101906020018083116109ff57829003601f168201915b5050509183525050600382015460208083019190915260048301805460408051601f60026000196101006001871615020190941693909304928301859004850281018501825282815294019392830182828015610aba5780601f10610a8f57610100808354040283529160200191610aba565b820191906000526020600020905b815481529060010190602001808311610a9d57829003601f168201915b505050918352505060058201805460408051602060026001851615610100026000190190941693909304601f8101849004840282018401909252818152938201939291830182828015610b4e5780601f10610b2357610100808354040283529160200191610b4e565b820191906000526020600020905b815481529060010190602001808311610b3157829003601f168201915b50505091909252505050602081015160408201516060830151608084015160a090940151929b919a509850919650945092505050565b6002805482908110610b9257fe5b60009182526020909120015473ffffffffffffffffffffffffffffffffffffffff16905081565b6000805460019081018083556040805160c08101825282815260208082018b81528284018b9052606083018a90526080830189905260a08301889052938652600581529190942084518155915180519293610c1c9390850192919091019061116e565b5060408201518051610c3891600284019160209091019061116e565b506060820151600382015560808201518051610c5e91600484019160209091019061116e565b5060a08201518051610c7a91600584019160209091019061116e565b509050507fde966ac8c370c4569afe3b6e6fbf020e23a583b35a5978fd670fb38a4da1dd3f6000548686868686604051808781526020018060200180602001868152602001806020018060200185810385528a818151815260200191508051906020019080838360005b83811015610cfc578181015183820152602001610ce4565b50505050905090810190601f168015610d295780820380516001836020036101000a031916815260200191505b5085810384528951815289516020918201918b019080838360005b83811015610d5c578181015183820152602001610d44565b50505050905090810190601f168015610d895780820380516001836020036101000a031916815260200191505b50858103835287518152875160209182019189019080838360005b83811015610dbc578181015183820152602001610da4565b50505050905090810190601f168015610de95780820380516001836020036101000a031916815260200191505b50858103825286518152865160209182019188019080838360005b83811015610e1c578181015183820152602001610e04565b50505050905090810190601f168015610e495780820380516001836020036101000a031916815260200191505b509a505050505050505050505060405180910390a15050505050565b6005602090815260009182526040918290208054600180830180548651600293821615610100026000190190911692909204601f810186900486028301860190965285825291949293909290830182828015610f025780601f10610ed757610100808354040283529160200191610f02565b820191906000526020600020905b815481529060010190602001808311610ee557829003601f168201915b50505060028085018054604080516020601f6000196101006001871615020190941695909504928301859004850281018501909152818152959695945090925090830182828015610f945780601f10610f6957610100808354040283529160200191610f94565b820191906000526020600020905b815481529060010190602001808311610f7757829003601f168201915b50505050600383015460048401805460408051602060026001851615610100026000190190941693909304601f8101849004840282018401909252818152959693959394509083018282801561102b5780601f106110005761010080835404028352916020019161102b565b820191906000526020600020905b81548152906001019060200180831161100e57829003601f168201915b5050505060058301805460408051602060026001851615610100026000190190941693909304601f81018490048402820184019092528181529495949350908301828280156110bb5780601f10611090576101008083540402835291602001916110bb565b820191906000526020600020905b81548152906001019060200180831161109e57829003601f168201915b5050505050905086565b60008a81526005602052604090206110e1600182018b8b6111ec565b506110f06002820189896111ec565b50600381018690556111066004820186866111ec565b506111156005820184846111ec565b505050505050505050505050565b60005481565b6001805482908110610b9257fe5b60c0604051908101604052806000815260200160608152602001606081526020016000815260200160608152602001606081525090565b828054600181600116156101000203166002900490600052602060002090601f016020900481019282601f106111af57805160ff19168380011785556111dc565b828001600101855582156111dc579182015b828111156111dc5782518255916020019190600101906111c1565b506111e892915061125a565b5090565b828054600181600116156101000203166002900490600052602060002090601f016020900481019282601f1061122d5782800160ff198235161785556111dc565b828001600101855582156111dc579182015b828111156111dc57823582559160200191906001019061123f565b61127491905b808211156111e85760008155600101611260565b9056fea165627a7a723058205218c92c035f442b8409881a7763a0d804bcb99a06712c297ef6958de63603880029",
  "source": "pragma solidity ^0.5.0;\r\ncontract HospitalRecord{\r\n    uint public recordCount =0;\r\n    struct patient {\r\n        //uint id;\r\n        string name;\r\n        uint age;\r\n        string password;\r\n        address[] doctorAccessList;\r\n        string[] patientRecordList;\r\n    }\r\n    struct doctor {\r\n        //uint id;\r\n        string name;\r\n        string password;\r\n        address[] patientAccessList;\r\n    }\r\n    struct Record {\r\n        uint id; \r\n        string doctor_name;\r\n        string patient_name;\r\n        uint patient_age;\r\n        string diagnostic;\r\n        string medication;\r\n        //uint256 register_date;\r\n    }\r\n    address[] public patientList;\r\n    address[] public doctorList;\r\n\r\n    mapping (address => patient) patientInfo;\r\n    mapping (address => doctor) doctorInfo;\r\n    mapping (uint => Record ) public records;\r\n\r\n    event RecordCreated(\r\n        uint id,\r\n        string doctor_name,\r\n        string patient_name,\r\n        uint patient_age,\r\n        string diagnostic,\r\n        string medication\r\n    );\r\n    // function add_Patient(string memory _name, uint _age,string memory _password ) public {\r\n    //     address addr =msg.sender;\r\n    //     patientInfo[addr].name = _name;\r\n    //     patientInfo[addr].age = _age;\r\n    //     patientInfo[addr].password = _password;\r\n    //     patientList.push(addr)-1;\r\n    // }\r\n    function createRecord(string memory _doctor_name,string memory _patient_name,uint _patient_age, string memory _diagnostic,string memory _medication) public {\r\n\r\n        recordCount ++;\r\n        records[recordCount] = Record(recordCount, _doctor_name,_patient_name,_patient_age,_diagnostic,_medication);\r\n        emit RecordCreated(recordCount, _doctor_name, _patient_name, _patient_age, _diagnostic, _medication);\r\n    }\r\n\r\n    function getRecord(uint id) public returns (string memory _doctor_name,string memory _patient_name,uint _patient_age, string memory _diagnostic,string memory _medication){\r\n\r\n         Record memory rec = records[id];\r\n\r\n\t    return (rec.doctor_name, rec.patient_name, rec.patient_age, rec.diagnostic, rec.medication);\r\n        }\r\n\r\n    function updateRecord(uint id,string calldata _doctor_name,string calldata _patient_name,uint _patient_age, string calldata _diagnostic,string calldata _medication) external {\r\n\t\tRecord storage rec = records[id];\r\n\r\n\t\trec.doctor_name =_doctor_name;\r\n\t\trec.patient_name = _patient_name;\r\n\t\trec.patient_age = _patient_age;\r\n\t\trec.diagnostic = _diagnostic;\r\n\t\t rec.medication = _medication;\r\n\t}\r\n\r\n\r\n}",
  "sourcePath": "D:/SHAIMA/GI3/Matiere Blockchain Indus/Our_Project/contracts/HospitalRecord.sol",
  "compiler": {
    "name": "solc",
    "version": "0.5.0+commit.1d4f565a.Emscripten.clang"
  },
  "schemaVersion": "3.0.1",
  "updatedAt": "2021-12-06T01:02:04.957Z",
  "devdoc": {
    "methods": {}
  },
  "userdoc": {
    "methods": {}
  }
}