{
  "contractName": "HospitalRecord",
  "abi": [
    {
      "constant": true,
      "inputs": [
        {
          "name": "",
          "type": "uint256"
        }
      ],
      "name": "doctorList",
      "outputs": [
        {
          "name": "",
          "type": "address"
        }
      ],
      "payable": false,
      "stateMutability": "view",
      "type": "function",
      "signature": "0x127ca4b4"
    },
    {
      "constant": true,
      "inputs": [
        {
          "name": "",
          "type": "uint256"
        }
      ],
      "name": "patientList",
      "outputs": [
        {
          "name": "",
          "type": "address"
        }
      ],
      "payable": false,
      "stateMutability": "view",
      "type": "function",
      "signature": "0xbabb1d41"
    }
  ],
  "bytecode": "0x608060405234801561001057600080fd5b5061013c806100206000396000f3fe60806040526004361061004b5763ffffffff7c0100000000000000000000000000000000000000000000000000000000600035041663127ca4b48114610050578063babb1d41146100a3575b600080fd5b34801561005c57600080fd5b5061007a6004803603602081101561007357600080fd5b50356100cd565b6040805173ffffffffffffffffffffffffffffffffffffffff9092168252519081900360200190f35b3480156100af57600080fd5b5061007a600480360360208110156100c657600080fd5b5035610102565b60018054829081106100db57fe5b60009182526020909120015473ffffffffffffffffffffffffffffffffffffffff16905081565b60008054829081106100db57fefea165627a7a723058204a48d67babe02a90c207aa53ac8f1798fa0e75e70237acafb7635e1bd67eb3210029",
  "source": "pragma solidity ^0.5.0;\r\ncontract HospitalRecord{\r\n\r\n    struct patient {\r\n        string name;\r\n        uint age;\r\n        string password;\r\n        address[] doctorAccessList;\r\n        string[] patientRecordList;\r\n    }\r\n    struct doctor {\r\n        string name;\r\n        string password;\r\n        address[] patientAccessList;\r\n    }\r\n    address[] public patientList;\r\n    address[] public doctorList;\r\n\r\n    mapping (address => patient) patientInfo;\r\n    mapping (address => doctor) doctorInfo;\r\n}",
  "sourcePath": "D:/SHAIMA/GI3/Matiere Blockchain Indus/Our_Project/contracts/HospitalRecord.sol",
  "compiler": {
    "name": "solc",
    "version": "0.5.0+commit.1d4f565a.Emscripten.clang"
  },
  "schemaVersion": "3.0.1",
  "updatedAt": "2021-12-05T15:30:32.016Z",
  "devdoc": {
    "methods": {}
  },
  "userdoc": {
    "methods": {}
  }
}