{
  "contractName": "HospitalRecord",
  "abi": [
    {
      "constant": true,
      "inputs": [
        {
          "name": "",
          "type": "uint256"
        }
      ],
      "name": "doctorList",
      "outputs": [
        {
          "name": "",
          "type": "address"
        }
      ],
      "payable": false,
      "stateMutability": "view",
      "type": "function",
      "signature": "0x127ca4b4"
    },
    {
      "constant": true,
      "inputs": [
        {
          "name": "",
          "type": "uint256"
        }
      ],
      "name": "records",
      "outputs": [
        {
          "name": "id",
          "type": "uint256"
        },
        {
          "name": "doctor_name",
          "type": "string"
        },
        {
          "name": "patient_name",
          "type": "string"
        },
        {
          "name": "patient_age",
          "type": "uint256"
        },
        {
          "name": "diagnostic",
          "type": "string"
        },
        {
          "name": "medication",
          "type": "string"
        },
        {
          "name": "register_date",
          "type": "uint256"
        }
      ],
      "payable": false,
      "stateMutability": "view",
      "type": "function",
      "signature": "0x34461067"
    },
    {
      "constant": true,
      "inputs": [],
      "name": "recordCount",
      "outputs": [
        {
          "name": "",
          "type": "uint256"
        }
      ],
      "payable": false,
      "stateMutability": "view",
      "type": "function",
      "signature": "0x900407bc"
    },
    {
      "constant": true,
      "inputs": [
        {
          "name": "",
          "type": "uint256"
        }
      ],
      "name": "patientList",
      "outputs": [
        {
          "name": "",
          "type": "address"
        }
      ],
      "payable": false,
      "stateMutability": "view",
      "type": "function",
      "signature": "0xbabb1d41"
    },
    {
      "constant": false,
      "inputs": [
        {
          "name": "_doctor_name",
          "type": "string"
        },
        {
          "name": "_patient_name",
          "type": "string"
        },
        {
          "name": "_patient_age",
          "type": "uint256"
        },
        {
          "name": "_diagnostic",
          "type": "string"
        },
        {
          "name": "_medication",
          "type": "string"
        },
        {
          "name": "_creation_date",
          "type": "uint256"
        }
      ],
      "name": "createRecord",
      "outputs": [],
      "payable": false,
      "stateMutability": "nonpayable",
      "type": "function",
      "signature": "0x74ec323d"
    }
  ],
  "bytecode": "0x60806040526000805534801561001457600080fd5b506109a6806100246000396000f3fe60806040526004361061006c5763ffffffff7c0100000000000000000000000000000000000000000000000000000000600035041663127ca4b4811461007157806334461067146100c457806374ec323d146102ad578063900407bc14610501578063babb1d4114610528575b600080fd5b34801561007d57600080fd5b5061009b6004803603602081101561009457600080fd5b5035610552565b6040805173ffffffffffffffffffffffffffffffffffffffff9092168252519081900360200190f35b3480156100d057600080fd5b506100ee600480360360208110156100e757600080fd5b5035610587565b604051808881526020018060200180602001878152602001806020018060200186815260200185810385528b818151815260200191508051906020019080838360005b83811015610149578181015183820152602001610131565b50505050905090810190601f1680156101765780820380516001836020036101000a031916815260200191505b5085810384528a5181528a516020918201918c019080838360005b838110156101a9578181015183820152602001610191565b50505050905090810190601f1680156101d65780820380516001836020036101000a031916815260200191505b5085810383528851815288516020918201918a019080838360005b838110156102095781810151838201526020016101f1565b50505050905090810190601f1680156102365780820380516001836020036101000a031916815260200191505b50858103825287518152875160209182019189019080838360005b83811015610269578181015183820152602001610251565b50505050905090810190601f1680156102965780820380516001836020036101000a031916815260200191505b509b50505050505050505050505060405180910390f35b3480156102b957600080fd5b506104ff600480360360c08110156102d057600080fd5b8101906020810181356401000000008111156102eb57600080fd5b8201836020820111156102fd57600080fd5b8035906020019184600183028401116401000000008311171561031f57600080fd5b91908080601f016020809104026020016040519081016040528093929190818152602001838380828437600092019190915250929594936020810193503591505064010000000081111561037257600080fd5b82018360208201111561038457600080fd5b803590602001918460018302840111640100000000831117156103a657600080fd5b91908080601f0160208091040260200160405190810160405280939291908181526020018383808284376000920191909152509295843595909490935060408101925060200135905064010000000081111561040157600080fd5b82018360208201111561041357600080fd5b8035906020019184600183028401116401000000008311171561043557600080fd5b91908080601f016020809104026020016040519081016040528093929190818152602001838380828437600092019190915250929594936020810193503591505064010000000081111561048857600080fd5b82018360208201111561049a57600080fd5b803590602001918460018302840111640100000000831117156104bc57600080fd5b91908080601f01602080910402602001604051908101604052809392919081815260200183838082843760009201919091525092955050913592506107ed915050565b005b34801561050d57600080fd5b506105166108cb565b60408051918252519081900360200190f35b34801561053457600080fd5b5061009b6004803603602081101561054b57600080fd5b50356108d1565b600280548290811061056057fe5b60009182526020909120015473ffffffffffffffffffffffffffffffffffffffff16905081565b6005602090815260009182526040918290208054600180830180548651600293821615610100026000190190911692909204601f8101869004860283018601909652858252919492939092908301828280156106245780601f106105f957610100808354040283529160200191610624565b820191906000526020600020905b81548152906001019060200180831161060757829003601f168201915b50505060028085018054604080516020601f60001961010060018716150201909416959095049283018590048502810185019091528181529596959450909250908301828280156106b65780601f1061068b576101008083540402835291602001916106b6565b820191906000526020600020905b81548152906001019060200180831161069957829003601f168201915b50505050600383015460048401805460408051602060026001851615610100026000190190941693909304601f8101849004840282018401909252818152959693959394509083018282801561074d5780601f106107225761010080835404028352916020019161074d565b820191906000526020600020905b81548152906001019060200180831161073057829003601f168201915b5050505060058301805460408051602060026001851615610100026000190190941693909304601f81018490048402820184019092528181529495949350908301828280156107dd5780601f106107b2576101008083540402835291602001916107dd565b820191906000526020600020905b8154815290600101906020018083116107c057829003601f168201915b5050505050908060060154905087565b6000805460019081018083556040805160e08101825282815260208082018c81528284018c9052606083018b9052608083018a905260a0830189905260c08301889052938652600581529190942084518155915180519293610857939085019291909101906108df565b50604082015180516108739160028401916020909101906108df565b5060608201516003820155608082015180516108999160048401916020909101906108df565b5060a082015180516108b59160058401916020909101906108df565b5060c08201518160060155905050505050505050565b60005481565b600180548290811061056057fe5b828054600181600116156101000203166002900490600052602060002090601f016020900481019282601f1061092057805160ff191683800117855561094d565b8280016001018555821561094d579182015b8281111561094d578251825591602001919060010190610932565b5061095992915061095d565b5090565b61097791905b808211156109595760008155600101610963565b9056fea165627a7a7230582021055525037ce43f9dd14c7c91dfb1a8054cc8dd51d75ba526ed35078e5efed00029",
  "source": "pragma solidity ^0.5.0;\r\ncontract HospitalRecord{\r\n    uint public recordCount =0;\r\n    struct patient {\r\n        //uint id;\r\n        string name;\r\n        uint age;\r\n        string password;\r\n        address[] doctorAccessList;\r\n        string[] patientRecordList;\r\n    }\r\n    struct doctor {\r\n        //uint id;\r\n        string name;\r\n        string password;\r\n        address[] patientAccessList;\r\n    }\r\n      struct Record {\r\n        uint id; \r\n        string doctor_name;\r\n        string patient_name;\r\n        uint patient_age;\r\n        string diagnostic;\r\n        string medication;\r\n        uint256 register_date;\r\n    }\r\n    address[] public patientList;\r\n    address[] public doctorList;\r\n\r\n    mapping (address => patient) patientInfo;\r\n    mapping (address => doctor) doctorInfo;\r\n    mapping (uint => Record ) public records;\r\n    // function add_Patient(string memory _name, uint _age,string memory _password ) public {\r\n    //     address addr =msg.sender;\r\n    //     patientInfo[addr].name = _name;\r\n    //     patientInfo[addr].age = _age;\r\n    //     patientInfo[addr].password = _password;\r\n    //     patientList.push(addr)-1;\r\n    // }\r\n    function createRecord(string memory _doctor_name,string memory _patient_name,uint _patient_age, string memory _diagnostic,string memory _medication,uint256 _creation_date) public {\r\n        recordCount ++;\r\n        records[recordCount] = Record(recordCount, _doctor_name,_patient_name,_patient_age,_diagnostic,_medication,_creation_date);\r\n    }\r\n\r\n}",
  "sourcePath": "D:/SHAIMA/GI3/Matiere Blockchain Indus/Our_Project/contracts/HospitalRecord.sol",
  "compiler": {
    "name": "solc",
    "version": "0.5.0+commit.1d4f565a.Emscripten.clang"
  },
  "schemaVersion": "3.0.1",
  "updatedAt": "2021-12-05T21:48:37.374Z",
  "devdoc": {
    "methods": {}
  },
  "userdoc": {
    "methods": {}
  }
}